:100000000C9434000C9451000C9451000C94510049
:100010000C9451000C9451000C9451000C9451001C
:100020000C9451000C9451000C9451000C9451000C
:100030000C9451000C9451000C9453000C945100FA
:100040000C9451000C9451000C9451000C945100EC
:100050000C9451000C9451000C9451000C945100DC
:100060000C9451000C94510011241FBECFEFD8E026
:10007000DEBFCDBF11E0A0E0B1E0ECE6F2E002C0EF
:1000800005900D92A432B107D9F721E0A4E2B1E0C6
:1000900001C01D92AA32B207E1F70E9485000C94BC
:1000A00034010C9400001F920F920FB60F9211248E
:1000B0002F933F938F939F938091240190912501DB
:1000C000019690932501809324012091260130917F
:1000D00027012F5F3F4F3093270120932601883B54
:1000E0009B4054F081E090E0909329018093280197
:1000F00010922501109224019F918F913F912F9191
:100100000F900FBE0F901F9018951092290110921A
:10011000280110922501109224018AB182608AB9C7
:100120000E94FC000E940B0180E091E00E942701E8
:100130002FEF80E899E2215080409040E1F700C025
:10014000000080E091E00E9427012FEF80E899E213
:10015000215080409040E1F700C0000080E091E035
:100160000E9427012FEF80E899E2215080409040C3
:10017000E1F700C0000080E091E00E9427012FEF2E
:1001800080E899E2215080409040E1F700C00000F3
:1001900080E091E00E9427012FEF80E899E2215052
:1001A00080409040E1F700C000002FEF8EEB92E717
:1001B000215080409040E1F700C0000085E091E0D0
:1001C0000E9427012FEF8EEB92E721508040904054
:1001D000E1F700C0000088E191E00E94270181E280
:1001E0000E9420012FEF8EEB92E72150804090403B
:1001F000E1F700C0000098CFE1E6F0E080E88083FE
:10020000108282E084BD95E095BD80936E0087E00A
:1002100087BD78940895E1E6F0E080E8808310825D
:1002200082E08093C00088E18093C10086E08093E3
:10023000C20087E690E09093C5008093C4000895C3
:100240009091C00095FFFCCF8093C6000895CF9396
:10025000DF93EC0103C00E94200121968881811167
:0C026000FACFDF91CF910895F894FFCF02
:10026C003132333E0031323334353637383941424E
:10027C00434446474653440048656C6C6F20776F87
:04028C00726C64002C
:00000001FF
