S0130000554152545F416C657869732E7372656310
S11300000C9434000C9446000C9446000C94460066
S11300100C9446000C9446000C9446000C94460044
S11300200C9446000C9446000C9446000C94460034
S11300300C9446000C9446000C9448000C94460022
S11300400C9446000C9446000C9446000C94460014
S11300500C9446000C9446000C9446000C94460004
S11300600C9446000C94460011241FBECFEFD8E038
S1130070DEBFCDBF21E0A0E0B1E001C01D92A630FB
S1130080B207E1F70E947A000C9410010C9400006E
S11300901F920F920FB60F9211242F933F938F93B9
S11300A09F93809100019091010101969093010129
S11300B08093000120910201309103012F5F3F4F93
S11300C030930301209302018838934154F081E076
S11300D090E0909305018093040110920101109225
S11300E000019F918F913F912F910F900FBE0F9020
S11300F01F901895CF93DF93CDB7DEB72F970FB628
S1130100F894DEBF0FBECDBF10920501109204011A
S113011010920101109200018AB182608AB90E9492
S1130120A7000E94B600CE0101960E94E600CE010F
S113013001960E94D2008DE00E94CB00109205012E
S1130140109204011092010110920001ECCFE1E63B
S1130150F0E080E88083108282E084BD95E095BD64
S113016080936E0087E087BD78940895E1E6F0E01F
S113017080E88083108282E08093C00088E18093CD
S1130180C10086E08093C20087E690E09093C500AA
S11301908093C40008959091C00095FFFCCF809394
S11301A0C6000895CF93DF93EC0103C00E94CB00F7
S11301B0219688818111FACFDF91CF9108958091A2
S11301C0C0008823E4F78091C60008950F931F931D
S11301D0CF93DF938C0180E090E005C0F801E80F35
S11301E0F91F108201968F309105C4F3CFEFDFEF32
S11301F00E94DF002196F801EC0FFD1F80838E33EF
S113020049F0CF30D10534F4809104019091050177
S1130210892B71F31082DF91CF911F910F91089573
S1070220F894FFCF7C
S9030000FC
