:100000000C9454010C9471010C9471010C947101C5
:100010000C9471010C9471010C9471010C94710198
:100020000C9471010C9471010C9471010C94710188
:100030000C9471010C9471010C9473010C94710176
:100040000C9471010C9471010C9471010C94710168
:100050000C9471010C9471010C9471010C94710158
:100060000C9471010C947101050000000000050062
:10007000005F000005000700070005147F147F14CF
:1000800005242A7F2A12052313086462053649567F
:10009000205005080703000005001C224100050050
:1000A00041221C000514083E08140508083E0808F3
:1000B0000500B07000000508080808080500606029
:1000C0000000052010080402053E5149453E050088
:1000D000427F4000057249494946052141494D3357
:1000E000051814127F10052745454539053C4A4936
:1000F0004931054121110907053649494936054667
:100100004949291E05000014000005004034000084
:100110000508142241000514141414140541221476
:100120000800050201590906053E415D594E057C4E
:100130001211127C057F49494936053E4141412251
:10014000057F4141413E057F49494949057F0909EC
:100150000909053E41415173057F0808087F0500E4
:10016000417F4100052040413F01057F08142241A5
:10017000057F40404040057F020C027F057F040858
:10018000107F053E4141413E057F09090906053EB4
:100190004151215E057F0919294605264949493201
:1001A0000501017F0101053F4040403F051F204000
:1001B000201F053F4038403F0563140814630503C2
:1001C0000478040305615149454305007F4141001E
:1001D000050204081020050041417F0005040201CA
:1001E000020405404040404005070B000000052088
:1001F00054547840057F2844443805384444442802
:1002000005384444287F0538545454180500087EA6
:1002100009020518A4A49C78057F08040478050049
:10022000447D4000052040403D00057F10284400EB
:100230000500417F4000057C04780478057C0804B3
:10024000047805384444443805FC1824241805185B
:10025000242418FC057C080404080548545454243C
:100260000504043F4424053C4040207C051C2040FC
:10027000201C053C4030403C054428102844054CD7
:100280009090907C054464544C440500083641002D
:10029000050000770000050041360800050402044F
:1002A000080405007F417F0011241FBECFEFD8E076
:1002B000DEBFCDBF11E0A0E0B1E0ECEFF9E002C09D
:1002C00005900D92A430B107D9F725E0A4E0B1E084
:1002D00001C01D92A531B207E1F70E94A5010C945F
:1002E000FC040C9400001F920F920FB60F92112481
:1002F0002F933F938F939F938091060190910701D5
:100300000196909307018093060120910801309196
:1003100009012F5F3F4F309309012093080188386E
:10032000934154F081E090E090930B0180930A0197
:1003300010920701109206019F918F913F912F918A
:100340000F900FBE0F901F901895CF93DF93CDB7EE
:10035000DEB72F970FB6F894DEBF0FBECDBF109259
:100360000B0110920A0110920701109206018AB146
:1003700082608AB987B1806387B90E948C040E9429
:100380009B040E94940220E048E065E088E690E04B
:100390000E940E03CE0101960E94CB04CE0101966D
:1003A0000E94B7048DE00E94B004809104019091F6
:1003B0000501049771F488E090E090930101809327
:1003C00000010E9409030E945D0210920501109233
:1003D00004016091000183E00E948B02CE0101962E
:1003E0000E943E040E945D028091000190910101F3
:1003F0000E969093010180930001809104019091E9
:1004000005010196909305018093040110920B0160
:1004100010920A011092070110920601BBCF669557
:1004200066956695E82FF0E080E8689FE00DF11D85
:100430001124EB5EFE4F40830895669566956695A0
:10044000E82FF0E080E8689FE00DF11D1124EB5EDD
:10045000FE4F808108950F931F93CF93DF93C82F92
:100460008B01D42F0E946E0488E70E9480048C2F99
:100470000E948004C0E007C0F801EC0FF11D8081EC
:100480000E948004CF5FCD17B8F30E947804DF91FB
:10049000CF911F910F910895CF93DF931F92CDB706
:1004A000DEB7898341E0BE016F5F7F4F80E00E942D
:1004B0002B020F90DF91CF910895CF9381E20E949C
:1004C0004C0280E00E944C028FE70E944C0282E2C4
:1004D0000E944C0280E00E944C0287E00E944C0285
:1004E000C0E00BC080E1C89FB00111246B5E7E4F5D
:1004F00040E180E40E942B02CF5FC03498F3CF919B
:100500000895882314F080930C010895803410F42A
:1005100080930D010895CF93C62F0E9481028C2FE6
:100520000E948602CF9108950E9455048EEA0E948F
:100530004C0285ED0E944C0280EF0E944C0288EA3A
:100540000E944C028FE30E944C0283ED0E944C02F9
:1005500080E00E944C028DE80E944C0284E10E94DF
:100560004C0280E40E944C0280E20E944C0280E037
:100570000E944C0281EA0E944C0288EC0E944C02CC
:100580008AED0E944C0282E10E944C0281E80E94A6
:100590004C028FEF0E944C0289ED0E944C0281EFC9
:1005A0000E944C028BED0E944C0280E20E944C02A1
:1005B00084EA0E944C0286EA0E944C028EE20E946B
:1005C0004C028FEA0E944C0260E080E00E948B02A5
:1005D000ECE0F1E086EA82831782168215821182AE
:1005E000108208951F93CF93DF93182FD0E00BC094
:1005F000412F6D2F8C2F0E940F02CF5F01C0C0E0F2
:10060000CC23B4F7D85FD034D0F3DF91CF911F91D2
:10061000089580E090E00E94F20208956623E4F0DD
:100620004034D0F42230C0F4ECE0F1E094838383D2
:100630006583468350E041505109CA0199230CF467
:100640000796959587959595879595958795ECE06F
:10065000F1E08F5F8783208708954F925F926F92BA
:100660007F928F929F92AF92BF92CF92DF92EF9242
:10067000FF920F931F93CF93DF93ACE0B1E05C90B8
:1006800011964C901197805215969C91159717963C
:100690002C911797929F900111242F5F3F4F829FBB
:1006A000A001839F500D11241396ED91FC91149796
:1006B0005A018FEFA81AB80AE40FF51F7490842D21
:1006C0008770982E642C812C5FC0662D852D0E942A
:1006D0008B027501E80CF11C670181E0C81AD10892
:1006E00010E041C080910F0190911001FC01EE0DCE
:1006F000FF1D2491492D50E030E0092C02C0220F4B
:10070000331F0A94E2F7022F8820A1F0FC01EC0DC0
:10071000FD1DE49188E090E0841B950BF0E002C0A1
:10072000F595E7958A95E2F70E2F022B809113013C
:10073000C80ED11C80911401813039F4ECE0F1E055
:10074000618180810E941D02082BCCE0D1E069818B
:10075000888191E0980F9883402F0E940F028F812B
:10076000E80EF11C1F5F171508F4BCCF809114012F
:10077000811107C0ECE0F1E040E0618180810E94DE
:100780000F0288E0680E839480911301881608F4A4
:100790009CCF242D26952695269530E08091120138
:1007A00090E0840D911D0197AC0112F4495F5F4FF9
:1007B0005595479555954795559547952417350770
:1007C00009F445C08FE3861508F441C0662D852DD8
:1007D0000E948B02A80CB11C81E0A81AB10800E0AD
:1007E00029C0CCE0D1E0F98018816F2D812F0E94C3
:1007F0001D02EB81FC81EA0DFB1D449128E030E0F5
:100800002919310950E002C0559547952A95E2F71C
:10081000482B9885913009F4482BCCE0D1E081E059
:10082000810F88836F2D812F0E940F028F81A80E68
:10083000B11C0F5F0715A8F280911401811107C048
:10084000ECE0F1E040E0618180810E940F02852DA3
:10085000870D642D8F5F0E948B02DF91CF911F91D6
:100860000F91FF90EF90DF90CF90BF90AF909F904F
:100870008F907F906F905F904F900895CF93DF930C
:10088000EC010DC0ECE0F1E09081258130E0290F12
:10089000311D2038310534F421960E942D038881C2
:1008A0008111F0CFDF91CF91089587B1826087B930
:1008B00087B1816087B988B1826088B988B1816069
:1008C00088B91092B90082E08093B80084E08093E8
:1008D000BC0008958091B900887F089584EA8093D0
:1008E000BC008091BC008823E4F70E946A0408954C
:1008F00085ED8093BC008091BC0084FDFCCF089501
:100900008093BB0084E88093BC008091BC00882366
:10091000E4F70E946A040895E1E6F0E080E880834D
:10092000108282E084BD95E095BD80936E0087E0E3
:1009300087BD78940895E1E6F0E080E88083108236
:1009400082E08093C00088E18093C10086E08093BC
:10095000C20088E090E09093C5008093C4000895A1
:100960009091C00095FFFCCF8093C6000895CF936F
:10097000DF93EC0103C00E94B004219688818111AD
:10098000FACFDF91CF9108958091C0008823E4F7DA
:100990008091C6000895CF93DF93EC018FEF9FEF16
:1009A00090930301809302010E94C40420910201EC
:1009B000309103012F5F3F4F3093030120930201D9
:1009C000FE01E20FF31F80838E3361F080910201FC
:1009D000909103010E9734F480910A0190910B01DC
:1009E000892B11F38091020190910301C80FD91F47
:0C09F0001882DF91CF910895F894FFCF9A
:0409FC000800FFFFF1
:00000001FF
