:100000000C9434000C9451000C9451000C94510049
:100010000C9451000C9451000C9451000C9451001C
:100020000C9451000C9451000C9451000C9451000C
:100030000C9451000C9451000C9453000C945100FA
:100040000C9451000C9451000C9451000C945100EC
:100050000C9451000C9451000C9451000C945100DC
:100060000C9451000C94510011241FBECFEFD8E026
:10007000DEBFCDBF11E0A0E0B1E0EEE7F2E002C0EC
:1000800005900D92A832B107D9F721E0A8E2B1E0BE
:1000900001C01D92AE32B207E1F70E9485000C94B8
:1000A0003D010C9400001F920F920FB60F92112485
:1000B0002F933F938F939F938091280190912901D3
:1000C0000196909329018093280120912A01309173
:1000D0002B012F5F3F4F30932B0120932A01883B48
:1000E0009B4054F081E090E090932D0180932C018F
:1000F00010922901109228019F918F913F912F9189
:100100000F900FBE0F901F90189510922D01109216
:100110002C0110922901109228018AB182608AB9BB
:100120000E9405010E9414012FEF8BE49DE12150F4
:1001300080409040E1F700C0000080E091E00E9424
:1001400030012FEF8BE49DE1215080409040E1F79A
:1001500000C0000080E091E00E9430012FEF8BE4AE
:100160009DE1215080409040E1F700C0000080E018
:1001700091E00E9430012FEF8BE49DE121508040FF
:100180009040E1F700C0000080E091E00E94300163
:100190002FEF8BE49DE1215080409040E1F700C0BB
:1001A000000080E091E00E9430012FEF8BE49DE1A0
:1001B000215080409040E1F700C000002FEF8DE318
:1001C00099E4215080409040E1F700C0000085E0B4
:1001D00091E00E9430012FEF89E698E121508040A4
:1001E0009040E1F700C000008CE191E00E943001F6
:1001F0002FEF81E19AE7215080409040E1F700C065
:10020000000081E20E9429018FCFE1E6F0E080E862
:100210008083108282E084BD95E095BD80936E005E
:1002200087E087BD78940895E1E6F0E080E8808378
:10023000108282E08093C00088E18093C10086E054
:100240008093C20088E090E09093C5008093C40042
:1002500008959091C00095FFFCCF8093C60008954B
:10026000CF93DF93EC0103C00E942901219688817E
:0E0270008111FACFDF91CF910895F894FFCF5E
:10027E003132333E0031323334353637383941423C
:10028E00434446474746534453443E0048656C6CCE
:08029E006F20776F726C6400A1
:00000001FF
