:100000000C9434000C9451000C9451000C94510049
:100010000C9451000C9451000C9451000C9451001C
:100020000C9451000C9451000C9451000C9451000C
:100030000C9451000C9451000C9451000C945100FC
:100040000C9451000C9451000C9451000C945100EC
:100050000C9451000C9451000C9451000C945100DC
:100060000C9493000C94510011241FBECFEFD8E0E4
:10007000DEBFCDBF11E0A0E0B1E0E4EAF1E002C0F4
:1000800005900D92AC30B107D9F721E0ACE0B1E0BA
:1000900001C01D92A331B207E1F70E94C2000C9487
:1000A000D0000C940000880F8093BA0085E4809300
:1000B000BC0008958091B900887F803899F58091BF
:1000C0000C01E82FF0E09091BB00E35FFE4F9083BE
:1000D0008F5F80930C01863028F110920C0160E054
:1000E00071E08DE091E00E94C700892B39F484EC27
:1000F0008093BC0088E48093BB00089565E071E0C4
:100100008DE091E00E94C700892B39F484EC809344
:10011000BC0080E58093BB00089584EC8093BC0014
:100120001092BB0008951F920F920FB60F921124E8
:100130002F933F934F935F936F937F938F939F93EF
:10014000AF93BF93EF93FF938091B900887F803680
:1001500011F0803819F40E945A0003C084EC809397
:10016000BC00FF91EF91BF91AF919F918F917F91D3
:100170006F915F914F913F912F910F900FBE0F9014
:100180001F90189589E20E9453007894FFCFFB01DD
:10019000DC018D91019080190110D9F3990B08951C
:0401A000F894FFCF01
:0C01A40043616B650048656C6C6F0000E7
:00000001FF
