:100000000C9434000C9451000C9451000C94510049
:100010000C9451000C9451000C9451000C9451001C
:100020000C9451000C9451000C9451000C9451000C
:100030000C9451000C9451000C9451000C945100FC
:100040000C9451000C9451000C9451000C945100EC
:100050000C9451000C9451000C9451000C945100DC
:100060000C9451000C94510011241FBECFEFD8E026
:10007000DEBFCDBF11E0A0E0B1E0E2EBF1E002C0F5
:1000800005900D92AA30B107D9F721E0AAE0B1E0BE
:1000900001C01D92A931B207E1F70E9453000C94F0
:1000A000D7000C9400008AB182608AB98AB184605A
:1000B0008AB90E94790087EA91E60197F1F700C0BA
:1000C00000008AE091E00E94A90062E071E08AE00D
:1000D00091E00E94CE00892B21F49BB184E0892716
:1000E0008BB984E091E00E9495008DE00E948E0023
:1000F000E2CFE1E6F0E080E88083108282E0809346
:10010000C00088E18093C10086E08093C2008CE04B
:1001100090E09093C5008093C40008959091C00032
:1001200095FFFCCF8093C6000895CF93DF93EC0139
:1001300003C00E948E00219688818111FACFDF9141
:10014000CF9108958091C0008823E4F78091C60084
:100150000895CF93DF93EC018FEF9FEF9093010110
:10016000809300010E94A2002091000130910101C2
:100170002F5F3F4F3093010120930001FE01E20FFA
:10018000F31F80838E3371F78091000190910101FC
:10019000C80FD91F1882DF91CF910895FB01DC01B0
:1001A0008D91019080190110D9F3990B0895F8945D
:0201B000FFCF7F
:0A01B200FFFF410043616B65000090
:00000001FF
