:100000000C9434000C9451000C9451000C94510049
:100010000C9451000C9451000C9451000C9451001C
:100020000C9451000C9451000C9451000C9451000C
:100030000C9451000C9451000C9451000C945100FC
:100040000C9451000C9451000C9451000C945100EC
:100050000C9451000C9451000C9451000C945100DC
:100060000C9451000C94510011241FBECFEFD8E026
:10007000DEBFCDBF11E0A0E0B1E0E4EDF1E002C0F1
:1000800005900D92A431B107D9F721E0A4E1B1E0C8
:1000900001C01D92A332B207E1F70E9453000C94F5
:1000A000E8000C9400000E948A008AB184608AB93A
:1000B000789487EA91E60197F1F700C0000084E1A7
:1000C00091E00E94BA0062E071E084E191E00E9458
:1000D000DF00892B59F49BB184E089278BB984E038
:1000E00091E00E94A6008DE00E949F006AE071E00E
:1000F00084E191E00E94DF00892BD9F69BB184E076
:1001000089278BB98CE091E00E94A6008DE00E94C7
:100110009F00CFCFE1E6F0E080E88083108282E0AC
:100120008093C00088E18093C10086E08093C20084
:1001300087E690E09093C5008093C4000895909165
:10014000C00095FFFCCF8093C6000895CF93DF9346
:10015000EC0103C00E949F00219688818111FACF93
:10016000DF91CF9108958091C0008823E4F78091BA
:10017000C6000895CF93DF93EC018FEF9FEF90932C
:100180000101809300010E94B30020910001309191
:1001900001012F5F3F4F3093010120930001FE01C9
:1001A000E20FF31F80838E3371F7809100019091ED
:1001B0000101C80FD91F1882DF91CF910895FB016B
:1001C000DC018D91019080190110D9F3990B0895EC
:0401D000F894FFCFD1
:1001D400FFFF410043616B653E00420048656C6C63
:0401E4006F3E00006A
:00000001FF
