:100000000C9463000C948B000C948B000C94F706FA
:100010000C94F7060C94F7060C948B000C948B0050
:100020000C948B000C948B000C948B000C948B0024
:100030000C948B000C948B000C948B000C948B0014
:100040000C9455060C948B000C94C5060C949F06DA
:100050000C948B000C948B000C948B000C948B00F4
:100060000C946F070C948B00000000002400270004
:100070002A0000000008000201000003040700003D
:1000800000000000000000000000230026002900FE
:1000900000000000250028002B00040404040404D0
:1000A0000404020202020202030303030303010227
:1000B00004081020408001020408102001020408F6
:1000C00010208E08A70B11241FBECFEFD8E0DEBF93
:1000D000CDBF23E0A0E5B1E001C01D92A733B20778
:1000E000E1F711E0A0E0B1E0E0E2FCE102C0059040
:1000F0000D92A035B107D9F710E0C2E6D0E004C0F8
:100100002197FE010E94020CC136D107C9F70E9457
:1001100052090C94030E0C94000090E0FC01EE5880
:10012000FF4F2491FC01E255FF4F3491FC01E6564C
:10013000FF4FE491EE23C9F0222339F0233001F17F
:10014000A8F4213019F1223029F1F0E0EE0FFF1F61
:10015000E057FF4FA591B4918FB7F894EC916111DE
:1001600026C030953E233C938FBF08952730A9F0D9
:100170002830C9F0243049F7809180008F7D03C07A
:10018000809180008F7780938000DFCF84B58F7758
:1001900084BDDBCF84B58F7DFBCF8091B0008F779E
:1001A0008093B000D2CF8091B0008F7DF9CF3E2BED
:1001B000DACFCF93DF9390E0FC01E255FF4F24911B
:1001C00086569F4FFC0184918823D1F090E0880FE0
:1001D000991FFC01E859FF4FA591B491FC01E0572C
:1001E000FF4FC591D49161110EC09FB7F8948C91C7
:1001F000E22FE0958E238C932881E223E8839FBF32
:10020000DF91CF9108958FB7F894EC91E22BEC93A6
:100210008FBFF6CF3FB7F89480910B0290910C02FC
:10022000A0910D02B0910E0226B5A89B05C02F3FEC
:1002300019F00196A11DB11D3FBFBA2FA92F982F0C
:100240008827BC01CD01620F711D811D911D42E007
:10025000660F771F881F991F4A95D1F70895089553
:1002600008950895CF93DF93EC012FB7F894809110
:10027000070290910802A0910902B0910A022FBFD3
:1002800088879987AA87BB87E881F9810284F385EB
:10029000E02DCE01099597FF1EC02FB7F8948091ED
:1002A000070290910802A0910902B0910A022FBFA3
:1002B000488559856A857B85841B950BA60BB70BF2
:1002C0004C815D816E817F8184179507A607B707F2
:1002D000D8F28FEF9FEFDF91CF910895AF92BF9249
:1002E000CF92DF92EF92FF920F931F93CF93DF9302
:1002F0006C017B018B01040F151FEB015E01AE1831
:10030000BF08C017D10759F06991D601ED91FC9152
:100310000190F081E02DC6010995892B79F7C5017F
:10032000DF91CF911F910F91FF90EF90DF90CF90D1
:10033000BF90AF900895FC01538D448D252F30E080
:10034000842F90E0821B930B541710F0CF960895E2
:1003500001970895FC01918D828D981761F0A28D0F
:10036000AE0FBF2FB11D5D968C91928D9F5F9F73D5
:10037000928F90E008958FEF9FEF0895FC01918D8B
:10038000828D981731F0828DE80FF11D858D90E0F8
:1003900008958FEF9FEF0895FC01918D228D892F95
:1003A00090E0805C9F4F821B91098F73992708957D
:1003B0008FE592E00E94CC0121E0892B09F420E036
:1003C000822F089580E090E0892B29F00E94D801C7
:1003D00081110C9400000895FC01A48DA80FB92F81
:1003E000B11DA35ABF4F2C91848D90E001968F735D
:1003F0009927848FA689B7892C93A089B1898C917C
:10040000837080648C93938D848D981306C00288CA
:10041000F389E02D80818F7D80830895EF92FF9294
:100420000F931F93CF93DF93EC0181E0888F9B8D17
:100430008C8D98131AC0E889F989808185FF15C0D1
:100440009FB7F894EE89FF896083E889F9898081F4
:100450008370806480839FBF81E090E0DF91CF91C3
:100460001F910F91FF90EF900895F62E0B8D10E0E5
:100470000F5F1F4F0F731127E02E8C8D8E110CC054
:100480000FB607FCFACFE889F989808185FFF5CF9F
:10049000CE010E94EC01F1CFEB8DEC0FFD2FF11D91
:1004A000E35AFF4FF0829FB7F8940B8FEA89FB89DC
:1004B00080818062CFCFCF93DF93EC01888D88233A
:1004C000B9F0AA89BB89E889F9898C9185FD03C0B7
:1004D000808186FD0DC00FB607FCF7CF8C9185FF9C
:1004E000F2CF808185FFEDCFCE010E94EC01E9CFF4
:1004F000DF91CF9108952091F6013091F7012817EF
:10050000390771F49091F4018091F501981741F049
:10051000E091F401F0E0EC54FE4F808190E008950A
:100520008FEF9FEF08950895EF92FF920F931F931F
:10053000CF93DF93DC015C96ED90FC905D97E11426
:10054000F10479F481E090E013969C938E931297D6
:1005500090E080E0DF91CF911F910F91FF90EF909D
:1005600008955196ED91FC91529750968C91509729
:10057000982F90950FB75E962C915E97122F127060
:1005800021FD6095F8942081112319F1282B2083F7
:10059000E7012197F1F728E0462F50E0308160FF16
:1005A0001AC0382B3083E7012197F1F7BA0175950E
:1005B0006795215089F7112381F0808189238083F9
:1005C0000FBF5C968D919C910197F1F781E090E0CF
:1005D000C1CF2923DCCF3923E5CF9081892BEFCF01
:1005E0002091F6013091F7012817390761F48091C5
:1005F000F5012091F40190E0805C9F4F821B9109EE
:100600008F739927089590E080E008952091F60176
:100610003091F70128173907B9F49091F4018091CE
:10062000F501981789F0E091F401F0E0EC54FE4FE9
:1006300080812091F40130E02F5F3F4F2F733327EB
:100640002093F40190E008958FEF9FEF089520919B
:100650009101260F3327331F21323105ECF420910D
:100660003502FC0190E080E0243069F082E00895DA
:10067000A09191012191AC014F585E4FA40FB52F6D
:10068000B11D2C930196861798F380919101680F04
:100690006093910180E0089581E008951092350201
:1006A00081E08093340210920F0261E082E10E94A7
:1006B0008D0061E083E10E948D00E9EBF0E0808134
:1006C0008E7F808380818D7F808388E48093B800D3
:1006D00085E48093BC000895CF93DF9391E09093DD
:1006E00070018823B9F0C091B800D091BA00809110
:1006F000BC008A7B8093BC0060E082E10E948D0098
:1007000060E083E10E948D000E944E03D093BA0006
:10071000C093B800DF91CF910895CF92DF92EF920E
:10072000FF920F931F93CF93DF93D0915E0281E0EE
:10073000D13208F09CC0C0915D020E940A016B0199
:100740007C018091350281116CC082E0809335027A
:1007500081E0809334028FEF809333021092320253
:10076000D0933102ADE3B2E0E1E1F2E080E0D813F2
:100770008DC01092100280911002CC0FC82BC09334
:10078000100280910F02813009F084C010920F0294
:100790000E940A016B017C01809110028093BB00D2
:1007A0008091370290913802A0913902B0913A02BB
:1007B000892B8A2B8B2BA1F00E940A010091370212
:1007C000109138022091390230913A026C197D095A
:1007D0008E099F09061717072807390708F442C032
:1007E0008091BC0083FDD8CF85EC8093BC000E9433
:1007F0000A016B017C0180913502823009F44CC002
:10080000809133028F3F09F469C0809133028032B6
:1008100009F466C080913302803309F463C084E038
:1008200026C08091370290913802A0913902B09190
:100830003A02892B8A2B8B2B09F483CF0E940A0161
:1008400000913702109138022091390230913A021A
:100850006C197D098E099F090617170728073907A4
:1008600008F06FCF809136020E946C0385E01092F1
:100870003C0210925E0210923B02DF91CF911F91D9
:100880000F91FF90EF90DF90CF9008959D919193FD
:100890008F5F6DCF85EEA9CF80913702909138029E
:1008A000A0913902B0913A02892B8A2B8B2B09F443
:1008B000A2CF0E940A0100913702109138022091C4
:1008C000390230913A026C197D098E099F09061789
:1008D00017072807390708F08ECFC4CF80E0C7CFAD
:1008E00082E0C5CF83E0C3CFE091FD018091FC01A0
:1008F000E81730F4F0E0E05BFE4F808190E008956F
:100900008FEF9FEF08959091FD018091FC012FEFF3
:100910003FEF981748F4E92FF0E0E05BFE4F2081AD
:1009200030E09F5F9093FD01C90108958091FC0123
:100930009091FD01891B990B0895CF92DF92EF9260
:10094000FF920F931F93CF93DF937C01CB018A011A
:1009500020913B02222389F0EB016B01C40ED51ECE
:10096000CC15DD0569F06991D701ED91FC910190FD
:10097000F081E02DC7010995F3CF642F0E94270372
:10098000C801DF91CF911F910F91FF90EF90DF9001
:10099000CF900895CF93DF931F92CDB7DEB76983D1
:1009A00020913B022223F9F020915E02203258F080
:1009B00021E030E0FC013383228390E080E00F905F
:1009C000DF91CF91089580913C02E82FF0E0E35C45
:1009D000FD4F998190838F5F80933C0280935E02EC
:1009E00081E090E0ECCF61E0CE0101960E94270308
:1009F000F7CF90E080E00895FB0101900020E9F737
:100A00003197AF01461B570BDC01ED91FC91028041
:100A1000F381E02D09940F931F93CF93DF938C0103
:100A2000EB01FC01808191810097E1F0688179817F
:100A300061157105A9F0428153812C813D814217D6
:100A4000530770F00E94FC0D8C819D81F801958305
:100A500084831D821C82DF91CF911F910F91089595
:100A60000E94A40C88819981F801918380838A81F6
:100A70009B81938382838C819D819583848319825A
:100A800018821B821A82E5CFFC0180819181009738
:100A900011F00C94A40C0895FC0124813581232BC2
:100AA00039F421E0FB018081882349F020E007C070
:100AB000808191810E94F30D21E0892BB9F7822F6B
:100AC00008950F931F93CF93DF93EC018881998151
:100AD000009759F02A813B812617370730F081E0D3
:100AE000DF91CF911F910F9108958B016F5F7F4F21
:100AF0000E942D0D009759F0998388831B830A83E8
:100B00002C813D81232B59F7FC011082E8CF80E036
:100B1000E7CFCF93DF93EC01198218821B821A82F0
:100B20001D821C8270E060E00E946105288139818D
:100B300081110FC02115310519F0C9010E94A40CC3
:100B4000198218821D821C821B821A82DF91CF912A
:100B500008951D821C826EE371E0C901DF91CF917F
:100B60000C94FC0DEF92FF920F931F93CF93DF93A2
:100B700000D0CDB7DEB78C0169831A82FC01E48016
:100B8000F580FFEFEF1AFF0AB7010E946105882385
:100B900081F0F8012081318184819581BE016F5FF0
:100BA0007F4F820F931F0E94FC0DF801F582E482B3
:100BB00081E00F900F90DF91CF911F910F91FF90E7
:100BC000EF9008950F931F93CF93DF93EC018B0168
:100BD000198218821B821A821D821C8270E060E0DA
:100BE0000E94610528813981811119C021153105C3
:100BF00019F0C9010E94A40C198218821D821C825E
:100C00001B821A82C8010E94320197FD10C08E33E8
:100C1000910569F0682FCE010E94B205F3CF1D82C5
:100C20001C826EE371E0C9010E94FC0DEBCFCE0186
:100C3000DF91CF911F910F91089585ED8093BC00B6
:100C40008091370290913802A0913902B0913A0216
:100C50000796A11DB11D23E0B695A7959795879599
:100C60002A95D1F72091BC0024FD03C010923502D3
:100C70000895409137025091380260913902709185
:100C80003A02452B462B472B69F30097A105B10586
:100C900041F02AE22A95F1F700C00197A109B109B4
:100CA000E1CF809136020C946C031F920F920FB625
:100CB0000F9211242F933F938F939F93AF93BF93E2
:100CC0008091070290910802A0910902B0910A0256
:100CD0003091060223E0230F2D3758F50196A11D10
:100CE000B11D209306028093070290930802A093FF
:100CF0000902B0930A0280910B0290910C02A0911C
:100D00000D02B0910E020196A11DB11D80930B0240
:100D100090930C02A0930D02B0930E02BF91AF917D
:100D20009F918F913F912F910F900FBE0F901F9029
:100D3000189526E8230F0296A11DB11DD2CF1F9250
:100D40000F920FB60F9211242F933F934F935F93FF
:100D50006F937F938F939F93AF93BF93EF93FF9383
:100D60008FE592E00E94EC01FF91EF91BF91AF916E
:100D70009F918F917F916F915F914F913F912F91B3
:100D80000F900FBE0F901F9018951F920F920FB6E5
:100D90000F9211242F938F939F93EF93FF93E091E2
:100DA0006F02F09170028081E0917502F0917602FD
:100DB00082FD1BC09081809178028F5F8F7320919C
:100DC0007902821741F0E0917802F0E0E15AFD4F9C
:100DD000958F80937802FF91EF919F918F912F9142
:100DE0000F900FBE0F901F9018958081F4CF1F9227
:100DF0000F920FB60F9211242F933F934F935F934F
:100E00006F937F938F939F93AF93BF93EF93FF93D2
:100E1000E091F601F091F701309749F0A685B7858A
:100E20008585968D91FF14C09C918923A1F4FF9133
:100E3000EF91BF91AF919F918F917F916F915F9152
:100E40004F913F912F910F900FBE0F901F901895CB
:100E50009C91892361F7A389B4899C9185898095A8
:100E600089238C93868997890197F1F7608D718D1D
:100E7000A685B785558538E020E0CB010197F1F7CD
:100E8000822F90E095958795282F4C91452309F066
:100E90002068315091F7868D81FD20958091F50174
:100EA00090E001968F7399273091F401381799F0EB
:100EB000A091F501B0E0AC54BE4F2C938093F501A6
:100EC000828D938D0197F1F7A389B4898C919589CF
:100ED000892B8C93ACCF868D8160868FF1CF1F924A
:100EE0000F920FB60F9211242F933F934F935F935E
:100EF0006F937F938F939F93AF93BF93EF93FF93E2
:100F00008091B900887F803609F44AC0F0F58832B4
:100F100009F4A7C018F5803109F49BC0B8F4882300
:100F200009F4F9C0883009F494C0FF91EF91BF91A2
:100F3000AF919F918F917F916F915F914F913F9171
:100F40002F910F900FBE0F901F901895883109F4C4
:100F500088C0803251F78093330214C0803409F482
:100F60009DC040F48033B9F38833F9F6809333029F
:100F700085ECB0C0803509F485C0883509F496C089
:100F8000883499F60E941D06D0CF883909F48CC0A8
:100F900038F5883729F050F4883611F0803729F673
:100FA00083E0809335021092B30157C0883809F46A
:100FB0007BC0803919F0803809F0B7CF8091B30138
:100FC000803208F071C0E091B30181E08E0F809310
:100FD000B3018091BB00F0E0ED56FE4F80833DC031
:100FE000803B39F0E0F4803A09F479C0883A09F09E
:100FF0009CCF84E08093350210929201109291016F
:10100000E091FA01F091FB01099580919101811124
:101010000FC081E0809391011092710109C0803C62
:1010200009F4A6CF883C09F4A3CF883B09F07DCF13
:10103000E091920181E08E0F80939201F0E0EF58F1
:10104000FE4F80818093BB0090919201809191012D
:1010500029C0809110028093BB0085EC8093BC0076
:1010600064CF9091320280913102981758F5E09147
:10107000320281E08E0F80933202F0E0EF5EFD4F8E
:101080008081E9CFE091320281E08E0F80933202BD
:101090008091BB00F0E0EF5EFD4F808390913202C3
:1010A000809131029817C8F285E8D8CFE0913202DA
:1010B00081E08E0F809332028091BB00F0E0EF5E02
:1010C000FD4F80838091340281115CCF81E0809359
:1010D0000F0284EA8093BC001092350226CF85EC83
:1010E0008093BC00109235028091B301803230F4BD
:1010F000E091B301F0E0ED56FE4F10826091B30134
:1011000070E0E091F801F091F90183E991E009952F
:101110001092B3010ACF1092330234CF10926202C0
:101120001092610288EE93E0A0E0B0E08093630249
:1011300090936402A0936502B09366022AE031E0C6
:101140003093600220935F0225EC30E030936C0214
:1011500020936B0224EC30E030936E0220936D02FA
:1011600020EC30E03093700220936F0221EC30E0ED
:10117000309372022093710222EC30E030937402BB
:101180002093730226EC30E03093760220937502B0
:10119000109278021092790210927A0210927B02D9
:1011A0001092FF021092FE028093000390930103BD
:1011B000A0930203B09303032CE131E03093FD02CE
:1011C0002093FC02109217031092160380931803C9
:1011D00090931903A0931A03B0931B038EE291E03E
:1011E000909315038093140310922B0310922A03FB
:1011F00010922D0310922C0310922F0310922E03A5
:101200001092310310923003609132036E7F6D7F34
:10121000609332036695617081E0682783E00E94E5
:101220008D0061E083E00E94D900E1EBF0E0E49101
:10123000E0932403EDE9F0E0E491F0E0EE0FFF1F0E
:10124000E057FF4F85919491909326038093250357
:1012500060E082E00E94D9008091320381FD04C0E9
:1012600061E082E00E948D0082E080932003E0EB49
:10127000F0E0E491E0932103ECE9F0E0E491F0E0A8
:10128000EE0FFF1FEA57FF4F859194919093230330
:10129000809322038EE093E00E94890588E093E02A
:1012A0000C948905CF93DF9300D000D000D0CDB748
:1012B000DEB7789484B5826084BD84B5816084BDD6
:1012C00085B5826085BD85B5816085BD80916E00E4
:1012D000816080936E001092810080918100826015
:1012E0008093810080918100816080938100809152
:1012F00080008160809380008091B1008460809341
:10130000B1008091B00081608093B00080917A003C
:10131000846080937A0080917A00826080937A0062
:1013200080917A00816080937A0080917A00806851
:1013300080937A001092C100E0916F02F0917002E8
:1013400082E08083E0916B02F0916C021082E09168
:101350006D02F0916E028FEC808310927702E09123
:101360007302F091740286E08083E0917102F09143
:101370007202808180618083E0917102F09172023B
:10138000808188608083E0917102F0917202808197
:1013900080688083E0917102F091720280818F7D7C
:1013A000808310922F0310922E0310922D0310921F
:1013B0002C0310922B0310922A038DE991E0909355
:1013C00031038093300390912003963108F047C099
:1013D0002DEB30E030932B0320932A032BE931E0EF
:1013E00030932D0320932C032CE231E030932F0314
:1013F00020932E032091680084E0983048F031E07B
:101400009E3008F430E081E001C0880F3A95EAF799
:10141000822B809368002DE630E0983050F02BE668
:1014200030E09E3030F02CE630E0963110F030E0C5
:1014300020E03093280320932703292F30E09830B1
:1014400008F078C181E001C0880F9A95EAF780938F
:10145000290380913003909131030197F1F7809136
:101460002E0390912F03892B49F1E091F601F09121
:10147000F70123E0E431F20709F1309739F0A3894D
:10148000B4899C918589809589238C9380913203BE
:101490008E7F809332031092F5011092F40184E163
:1014A00093E09093F7018093F601E0912703F09188
:1014B0002803808190912903892B80831092FD015C
:1014C0001092FC0110923C0210925E020E944E03A8
:1014D0008FE291E09093FB018093FA0180E391E029
:1014E0009093F9018093F80161E088E00E94D900AF
:1014F00061E089E00E94D90060E088E00E948D00F0
:1015000060E089E00E948D0000E010E07724739491
:1015100098E0692E8FB7F894C0900702D090080227
:10152000E0900902F0900A028FBF80910202909130
:101530000302A0910402B0910502A7019601281BA5
:10154000390B4A0B5B0BDA01C901883B9B40A105B3
:10155000B10570F06CE371E08FE592E00E94FC044D
:10156000C0920202D0920302E0920402F0920502BD
:101570008091FE019091FF01A0910002B0910102C3
:10158000A7019601281B390B4A0B5B0BDA01C90135
:1015900088389341A105B10570F06FE371E084E1F3
:1015A00093E00E94FC04C092FE01D092FF01E09201
:1015B0000002F09201028FE592E00E94CC01181621
:1015C00019060CF03FC06FE572E0CE0101960E9453
:1015D000E205BE016F5F7F4F8EE093E00E940B0536
:1015E000CE0101960E9444056EE38EE093E00E94D6
:1015F000B20562E471E08EE093E00E944C05811137
:1016000008C068E471E08EE093E00E944C0560E061
:10161000811161E088E00E948D0070923B0260922F
:101620005D0210923C0210925E0260910E03709176
:101630000F036115710521F08CEF92E00E94FC040C
:101640000E948D0384E193E00E94F00218161906AF
:101650000CF064C064E173E0CE0101960E94E205E3
:10166000BE016F5F7F4F88E093E00E940B05CE01C3
:1016700001960E9444056EE388E093E00E94B20563
:1016800062E471E088E093E00E944C05811108C09B
:1016900068E471E088E093E00E944C0560E081110D
:1016A00061E089E00E948D000E940A014B015C010B
:1016B00088EBC82E8BE0D82EE12CF12C0E940A0179
:1016C000681979098A099B09683E7340810591056B
:1016D000A8F341E0C41AD108E108F10858EE850EDC
:1016E00053E0951EA11CB11CC114D104E104F10406
:1016F00029F770923B0260925D0210923C021092B8
:101700005E0260910803709109036115710521F073
:101710008CEF92E00E94FC040E948D0301151105DC
:1017200009F4F8CE0E94D801882309F4F3CE0E9470
:101730000000F0CE9E3040F42850310981E001C015
:10174000880F2A95EAF783CE2E503109F7CF88E02B
:1017500093E00E9444058EE093E00E9444058EE2EF
:1017600091E090931503809314038091F60190917A
:10177000F7018451934071F4E0912703F09128031D
:101780009081809129038095892380831092F701AD
:101790001092F60108952F923F924F925F926F92AE
:1017A0007F928F929F92AF92BF92CF92DF92EF92F1
:1017B000FF920F931F93CF93DF93CDB7DEB7CA1B72
:1017C000DB0B0FB6F894DEBF0FBECDBF09942A889D
:1017D000398848885F846E847D848C849B84AA8445
:1017E000B984C884DF80EE80FD800C811B81AA81D2
:1017F000B981CE0FD11D0FB6F894DEBF0FBECDBF9D
:10180000ED010895EE0FFF1F0590F491E02D09946E
:101810000F931F93CF93DF938230910510F482E0F2
:1018200090E0E0913503F091360330E020E0B0E045
:10183000A0E0309799F42115310509F44AC0281B1E
:10184000390B24303105D8F58A819B8161157105EA
:1018500089F1FB0193838283FE0111C04081518194
:101860000281138148175907E0F04817590799F486
:10187000109761F012960C93129713961C93329660
:10188000CF01DF91CF911F910F9108950093350300
:1018900010933603F4CF2115310551F04217530749
:1018A00038F0A901DB019A01BD01DF01F801C1CFC8
:1018B000EF01F9CF9093360380933503CDCFFE012E
:1018C000E20FF31F819391932250310939832883CA
:1018D000D7CF2091330330913403232B41F420914F
:1018E000020130910301309334032093330320919C
:1018F0000001309101012115310541F42DB73EB7AA
:101900004091040150910501241B350BE0913303F4
:10191000F0913403E217F307A0F42E1B3F0B2817B6
:10192000390778F0AC014E5F5F4F2417350748F058
:101930004E0F5F1F50933403409333038193919371
:101940009FCFF0E0E0E09CCFCF93DF930097E9F0EA
:10195000FC01329713821282A0913503B0913603B5
:10196000ED0130E020E01097A1F420813181820F59
:10197000931F20913303309134032817390709F05E
:1019800061C0F0933403E0933303DF91CF91089566
:10199000EA01CE17DF07E8F54A815B819E01411518
:1019A0005105B1F7E901FB83EA8349915991C40FCD
:1019B000D51FEC17FD0761F4808191810296840F99
:1019C000951FE90199838883828193819B838A8310
:1019D000F0E0E0E012968D919C9113970097B9F595
:1019E0002D913C911197CD010296820F931F20916A
:1019F0003303309134032817390739F6309751F5FE
:101A00001092360310923503B0933403A09333033E
:101A1000BCCFD383C28340815181840F951FC817E7
:101A2000D90761F44E5F5F4F88819981480F591F34
:101A3000518340838A819B81938382832115310561
:101A400009F0B0CFF0933603E09335039ECFFD014C
:101A5000DC01C0CF13821282D7CFB0E0A0E0E3E375
:101A6000FDE00C94CD0B8C01009751F4CB010E944A
:101A7000080C8C01C801CDB7DEB7E0E10C94E90B8E
:101A8000FC01E60FF71F9C0122503109E217F30712
:101A900008F49DC0D901CD91DC911197C617D707E5
:101AA00098F0C530D10530F3CE010497861797071B
:101AB00008F3C61BD70B2297C193D1936D937C93E8
:101AC000CF010E94A40CD6CF5B01AC1ABD0A4C0119
:101AD0008C0E9D1EA0913503B0913603512C412CE4
:101AE000F12CE12C109731F5809133039091340360
:101AF0008815990509F05CC04616570608F058C0CD
:101B00008091000190910101009741F48DB79EB73B
:101B10004091040150910501841B950BE817F907CA
:101B200008F055C0F0933403E0933303F901718357
:101B30006083A0CF8D919C91119712966C90129713
:101B400013967C901397A815B90559F56C0142E0DE
:101B5000C40ED11CCA14DB0420F1AC014A195B0984
:101B6000DA011296159780F0628273825183408366
:101B7000D9016D937C93E114F10471F0D7011396B0
:101B8000FC93EE93129776CF22968C0F9D1FF9014E
:101B900091838083F301EFCFF0933603E093350315
:101BA00069CF4816590608F42C017D01D3019ACF5C
:101BB000CB010E94080C7C01009749F0AE01B801EE
:101BC0000E94EA0DC8010E94A40C870153CF10E0C7
:101BD00000E050CFFB01DC0102C001900D924150AA
:101BE0005040D8F70895FB01DC018D9101908019D8
:101BF0000110D9F3990B0895FB01DC0101900D92BE
:101C00000020E1F7089510E0C2E6D0E004C0FE0134
:101C10000E94020C2196C336D107C9F7F894FFCF72
:101C2000000037038000000000000E026E019B01DF
:101C30005B02CC01AA01BE0100000000CA049D04A1
:101C4000F9049302960483047404000000009402D3
:101C50006E01F9049302F00206037B02413E00424A
:101C60003E0043616B653E0048656C6C6F3E000052
:00000001FF
